:020000040030CA
:0E00000000C61E000080800003C003E0034025
:020000040000FA
:020000040000FA
:020000040000FA
:020000040000FA
:020000001FD00F
:020000040000FA
:02000800FFD324
:020000040000FA
:02001800FFD314
:020000040000FA
:10004000DCD0EC6EF29E550EA76EAA0EA76EA682AD
:10005000F28EED501200A684A688F3D7A684A69847
:100060000A00EFDF090012009EAAFED7ABA203D060
:10007000AB98AB88F9D7EC6EAE50ABA402D0ED5084
:10008000F3D71200ACA2FED7AD6EED501200050002
:1000900089D8FD6EED5086D8FE6EED501200EC6EE4
:1000A000000E81D082D8A68EA69CD5DF7DD8F7D74A
:1000B0007CD8A68EA69CD2DF77D8F1D70F0B64D858
:1000C00012000ED070D00ED041D047D0E8D7FF003C
:1000D00019D00DD02CD020D047D033D0E3D7E8D7DB
:1000E00061D8DDD7D4DFDBD75DD8E8DFFDD75AD8BC
:1000F000E46E0900F55057D8EC6EE706FAE1E552D8
:10010000ED5012004FD8E46EDE504DD8EC6EE7068D
:10011000FBE1E552ED50120045D8E46EED5042D8B7
:10012000F56E0D00ED50E706FAE1E552B8D73AD882
:10013000E46EED5037D8DE6EED50E706FBE1E55298
:10014000AED756D8EC6E0800F528D2D72BD82AD8CF
:10015000DA6EED50D96EED50A2D724D823D8F76EC1
:10016000ED50F66EED509BD7EC6EFF0EEC6E400E30
:10017000E46E0900F550EF16E706FBE1E552ED509D
:1001800012D0EF60EF6EED50E844FD26010BFE2229
:10019000ED501200EC6EFD50F66EFE50F76EED5015
:1001A0000600120061D76ED71200120000EE7FF039
:1001B00010EE8FF08B68EC6E700ED36EED50120067
:1001C0009490EC6E140EE46EED508B70EC6E000E9D
:1001D000E46EED50EC6E000EE46EED50E706FEE1CD
:1001E000E552E706F7E1E552E706EFE1E5521200D6
:1001F000D1DF066B72696B697400000EFC6ED6DF8E
:10020000EC6EC00E9412400EAF6E240EAC6E900ECB
:0C021000AB6EED50D5DF82BE67DFF2D28E
:020000040000FA
:00000001FF
