:020000040030CA
:0E00000000C80F000080800003C003A0034072
:020000040000FA
:020000040000FA
:020000040000FA
:020000040000FA
:020000001FD00F
:020000040000FA
:02000800FFD027
:020000040000FA
:02001800FFD017
:020000040000FA
:10004000BCD0EC6EF29E550EA76EAA0EA76EA682CD
:10005000F28EED501200A684A688F3D7A684A69847
:100060000A00EFDF090012009EAAFED7ABA203D060
:10007000AB98AB88F9D7EC6EAE50ABA402D0ED5084
:10008000F3D71200ACA2FED7AD6EED501200050002
:1000900081D8FD6EED507ED8FE6EED501200EC6EF4
:1000A000000E79D0A68EA69CD6DFF9D7A68EA69C88
:1000B000D5DFF5D70F0B60D812000ED06CD00ED064
:1000C0003DD043D0ECD7FF0018D00DD029D01ED0A2
:1000D00043D02FD0E7D7EAD75DD8E1D7D8DFDFD735
:1000E00059D8E8DFFDD7E46E0900F55054D8EC6E1E
:1000F000E706FAE1E552ED501200E46EDE504BD80F
:10010000EC6EE706FBE1E552ED501200E46EED50B7
:1001100041D8F56E0D00ED50E706FAE1E552BFD784
:10012000E46EED5037D8DE6EED50E706FBE1E552A8
:10013000B6D73ED8EC6E0800F528D5D72BD82AD8EC
:10014000DA6EED50D96EED50AAD724D823D8F76EC9
:10015000ED50F66EED50A3D7EC6EFF0EEC6E400E38
:10016000E46E0900F550EF16E706FBE1E552ED50AD
:1001700012D0EF60EF6EED50E844FD26010BFE2239
:10018000ED501200EC6EFD50F66EFE50F76EED5025
:100190000600120069D776D71200120000EE7FF039
:1001A00010EE8FF08A68EC6E700ED36EED50120078
:1001B000E9DF064341546B697400000EFC6EEEDF0C
:1001C000C18AC18C93889382EC6E330EAF6E240E7D
:0E01D000AC6E900EAB6EED5081B882D711D0A0
:020000040000FA
:00000001FF
